S02B00004672657175656E6379616E64447574796379636C656D6561737572656D656E746F6650756C73657342
S11300000C9476000C9495000C9495000C94950037
S11300100C94A8010C9495000C9495000C949500F4
S11300200C9495000C9495000C9495000C949500F8
S11300300C9495000C9495000C9495000C949500E8
S11300400C9495000C9495000C9495000C949500D8
S11300500C9495000C9495000C9495000C949500C8
S11300600C9495000C9495000C9495000C949500B8
S11300700C9495000C9495000C94B9010C94F8021E
S11300800C9425030C9495000C9495000C94950005
S11300900C9495000C9495000C9495000C94950088
S11300A00C9495000C9495000C9495000C94950078
S11300B00C9495000C9495000C9495000C94950068
S11300C00C9495000C9495000C9495000C94950058
S11300D00C9495000C9495000C9495000C94950048
S11300E00C9495000C9495000C94950011241FBE5B
S11300F0CFEFCDBFDFE7DEBF10E4A0E0B0E4EEE574
S1130100FDE000E00BBF02C007900D92AC33B107D5
S1130110D9F720E4ACE3B0E401C01D92A63BB207DA
S1130120E1F70E9414020C94AD060C9400000F93A6
S11301301F93CF93FC018081882359F08F01C0E085
S11301400E945203CF5FF801EC0FF11D80818111F1
S1130150F7CFCF911F910F910895CF92DF92EF9235
S1130160FF920F931F9380915C408A3009F097C0EF
S11301708091484090914940A0914A40B0914B40B1
S11301808093584090935940A0935A40B0935B4059
S11301908091444090914540A0914640B0914740A1
S11301A08093544090935540A0935640B093574049
S11301B0609158407091594080915A4090915B40B1
S11301C00F2EFAE0CF2ED12CE12CF12CF02DA7012B
S11301D096010E94940320935040309351404093E1
S11301E052405093534060915440709155408091D7
S11301F0564090915740A70196010E949403209382
S11302004C4030934D4040934E4050934F4020918A
S11302104C4030914D4040914E4050914F40C090E1
S11302205040D0905140E0905240F0905340A4E6AA
S1130230B0E00E94B603A70196010E9494032093A4
S1130240404030934140409342405093434020917A
S1130250504030915140409152405091534060E0A1
S113026076E38EE691E00E94940320933C40309321
S11302703D4040933E4050933F401092484010927E
S1130280494010924A4010924B40109244401092C0
S11302904540109246401092474010925C40809135
S11302A0AF40813009F04DC06091404070914140B1
S11302B0809142409091434000913C4010913D40D8
S11302C020913E4030913F40C0904040D09041400A
S11302D0E0904240F09043403F932F931F930F933D
S11302E02AE030E040E050E00E9494031F926F93B4
S11302F0FF92EF92DF92CF9282E190E49F938F93EB
S113030083E790E49F938F930E94D00383E790E464
S11303100E9497001092AF401092404010924140CA
S1130320109242401092434010923C4010923D4043
S113033010923E4010923F408DB79EB70E968DBFEF
S11303409EBF1F910F91FF90EF90DF90CF90089583
S11303501F920F920FB60F9211248F9381E0809316
S1130360AF40809353018F910F900FBE0F901F9059
S113037018951F920F920FB60F9211240BB60F927D
S11303802F933F934F935F936F937F938F93EF9349
S1130390FF9380915C408A3088F5E0E2FBE024859D
S11303A0358540914440509145406091464070915C
S11303B04740420F531F611D711D409344405093A9
S11303C04540609346407093474022853385409171
S11303D048405091494060914A4070914B40420FCF
S11303E0531F611D711D40934840509349406093D1
S11303F04A4070934B408F5F80935C4081E08093D0
S1130400260BFF91EF918F917F916F915F914F91A7
S11304103F912F910F900BBE0F900FBE0F901F9026
S113042018950E947D0208950E9411020E94AD0059
S1130430FDCF1092890080E0089544E268ED88E6DB
S113044090E00E949E0280E00895789480E00895F0
S1130450E0E1F4E0808188608193E83184E0F8078A
S1130460C9F7E0E3F4E0808188608193E83384E0B5
S1130470F807C9F7E0E5F4E0808188608193E83506
S113048084E0F807C9F7E0E7F4E0808188608193AD
S1130490E83784E0F807C9F7E0E9F4E08081886090
S11304A08193E83984E0F807C9F7E0EBF4E0808150
S11304B088608193E83B84E0F807C9F7E0EDF4E055
S11304C0808188608193E83D84E0F807C9F7089546
S11304D04198E1E5F4E08081877F8083409A4898E1
S11304E00E9476030895249A2C98E0EEF5E0878123
S11304F0846087830E94B90208950E9428020698A6
S1130500E6E1F4E08081877F80830E941D020E94DF
S113051068020E9496020E94B7020E9425020E946D
S113052019020E94A3020E947302089586E4809334
S1130530100281E08093430280E008951BBEFC0119
S113054064BF40830895E0E4F1E081818111FDCF2F
S113055010924701E0E4F1E081898111FDCFE0E4EC
S1130560F1E081E7808B81E0828B80E0089580E078
S11305700895E0E2FBE085E1818381E08483858363
S1130580808380E0089590912008E0916A40EF5FB5
S1130590E77080916940E81759F0E0936A40F0E011
S11305A0E559FF4B9083809168408F5F809368404A
S11305B0089580915D40882389F0E0915E40EF5F6B
S11305C0E770E0935E40F0E0E05AFF4B8081809357
S11305D0220880915D40815080935D4080915D4010
S11305E0811105C0E0E2F8E085818F7D858308955F
S11305F01F920F920FB60F9211240BB60F922F93E6
S11306003F934F935F936F937F938F939F93AF9396
S1130610BF93EF93FF93E0910240F0910340309732
S113062009F00995FF91EF91BF91AF919F918F913F
S11306307F916F915F914F913F912F910F900BBEDE
S11306400F900FBE0F901F9018951F920F920FB628
S11306500F9211240BB60F922F933F934F935F93F6
S11306606F937F938F939F93AF93BF93EF93FF9376
S1130670E0910040F0910140309709F00995FF9115
S1130680EF91BF91AF919F918F917F916F915F9106
S11306904F913F912F910F900BBE0F900FBE0F9073
S11306A01F90189520915F402F5F277090915D40B7
S11306B09830E1F3E22FF0E0E05AFF4B808320937F
S11306C05F400FB6F8940F9280915D408F5F8093E6
S11306D05D400F900FBEE0E2F8E085818062858383
S11306E008950E94520380E090E00895E0E2F8E06B
S11306F081E493E08087918780E8858380EC86831A
S11307001092694010926A401092684010925E40C4
S113071010925F4010925D4084E090E48093B24078
S11307209093B34080E00895A1E21A2EAA1BBB1B4C
S1130730FD010DC0AA1FBB1FEE1FFF1FA217B307A9
S1130740E407F50720F0A21BB30BE40BF50B661FBF
S1130750771F881F991F1A9469F760957095809583
S113076090959B01AC01BD01CF0108950E94C10386
S1130770A59F900DB49F900DA49F800D911D1124F1
S11307800895A29FB001B39FC001A39F700D811D66
S11307901124911DB29F700D811D1124911D089586
S11307A00F931F93CF93DF93CDB7DEB72E97CDBFB3
S11307B0DEBF0D891E8986E08C8309831A838FEF3F
S11307C09FE78D839E83AE01475E5F4F6F89788D6F
S11307D0CE0101960E94F903EF81F885E00FF11F25
S11307E010822E96CDBFDEBFDF91CF911F910F9166
S11307F008952F923F924F925F926F927F928F92C1
S11308009F92AF92BF92CF92DF92EF92FF920F939B
S11308101F93CF93DF93CDB7DEB72B97CDBFDEBF4A
S11308206C017B018A01FC0116821782838181FF9E
S1130830CCC1CE0101963C01F6019381F70193FDF1
S1130840859193FF81917F01882309F4BAC1853290
S113085039F493FD859193FF81917F01853229F4C9
S1130860B60190E00E941306E7CF912C212C312C85
S1130870FFE1F315D8F08B3279F038F4803279F057
S11308808332A1F4232D20611DC08D3261F08033A9
S113089069F4232D216016C0832D8260382EE32D48
S11308A0E4603E2E2AC0F32DF8601DC037FC2DC035
S11308B020ED280F2A3040F08E32B9F436FC81C185
S11308C0232D2064322E19C036FE06C08AE0989E7D
S11308D0200D1124922E11C0EAE02E9E200D112429
S11308E0222EF32DF0623F2E08C08C3621F4832D86
S11308F08068382E02C0883641F4F70193FD859153
S113090093FF81917F018111B3CF982F9F7D9554DF
S1130910933028F40C5F1F4F9FE399830DC08336F7
S113092031F0833771F0833509F059C021C0F801E3
S1130930808189830E5F1F4F88248394912C5301F7
S113094013C02801F2E04F0E511CF801A080B180C1
S113095036FE03C0692D70E002C06FEF7FEFC50162
S11309600E9408064C018201F32DFF773F2E16C02A
S1130970280122E0420E511CF801A080B18036FE0D
S113098003C0692D70E002C06FEF7FEFC5010E94C4
S1130990FD054C01F32DF0683F2E820133FC1BC092
S11309A0822D90E088169906B0F4B60180E290E0BA
S11309B00E9413062A94F4CFF50137FC859137FE83
S11309C081915F01B60190E00E94130621102A94E0
S11309D021E0821A91088114910471F7E8C08436E9
S11309E011F0893641F5F80137FE07C06081718145
S11309F0828193810C5F1F4F08C060817181072E33
S1130A00000C880B990B0E5F1F4FF32DFF763F2EC2
S1130A1097FF09C090958095709561957F4F8F4F92
S1130A209F4FF0683F2E2AE030E0A3010E944F065A
S1130A30882E861845C0853731F4232D2F7EB22E9B
S1130A402AE030E025C0932D997FB92E8F36C1F06E
S1130A5018F4883579F0B5C0803719F0883721F05B
S1130A60B0C0E92FE061BE2EB4FE0DC0FB2DF460D2
S1130A70BF2E09C034FE0AC0292F2660B22E06C03C
S1130A8028E030E005C020E130E002C020E132E09F
S1130A90F801B7FE07C060817181828193810C5F88
S1130AA01F4F06C06081718180E090E00E5F1F4F90
S1130AB0A3010E944F06882E8618FB2DFF773F2E38
S1130AC036FE0DC0232D2E7FA22E891458F434FE39
S1130AD00BC032FC09C0832D8E7EA82E05C0B82C15
S1130AE0A32C03C0B82C01C0B92CA4FE0FC0FE0176
S1130AF0E80DF11D8081803321F49A2D997EA92E71
S1130B0009C0A2FE06C0B394B39404C08A2D8678AB
S1130B1009F0B394A3FC11C0A0FE06C0B21488F47B
S1130B20280C922C9B180EC0B21460F4B60180E21B
S1130B3090E00E941306B394F7CFB21418F42B1864
S1130B4002C0982C212CA4FE10C0B60180E390E0D2
S1130B500E941306A2FE17C0A1FC03C088E790E020
S1130B6002C088E590E0B6010CC08A2D867859F061
S1130B70A1FE02C08BE201C080E2A7FC8DE2B601B7
S1130B8090E00E941306891438F4B60180E390E0E3
S1130B900E9413069A94F7CF8A94F301E80DF11D8D
S1130BA08081B60190E00E9413068110F5CF2220C7
S1130BB009F442CEB60180E290E00E9413062A9422
S1130BC0F6CFF6018681978102C08FEF9FEF2B96B7
S1130BD0CDBFDEBFDF91CF911F910F91FF90EF90BA
S1130BE0DF90CF90BF90AF909F908F907F906F9049
S1130BF05F904F903F902F900895FC0105906150B5
S1130C0070400110D8F7809590958E0F9F1F08951E
S1130C10FC016150704001900110D8F780959095C7
S1130C208E0F9F1F08950F931F93CF93DF93FB01A4
S1130C30238121FD03C08FEF9FEF2CC022FF16C03C
S1130C4046815781248135814217530744F4A0819A
S1130C50B1819D012F5F3F4F208331838C93268187
S1130C6037812F5F3F4F2683378314C08B01EC01FC
S1130C70FB010084F185E02D0995892BE1F6D8016B
S1130C8016968D919C911797019616968D939C9329
S1130C901797CE01DF91CF911F910F910895FA011B
S1130CA0AA27283051F1203181F1E8946F936E7FA7
S1130CB06E5F7F4F8F4F9F4FAF4FB1E03ED0B4E098
S1130CC03CD0670F781F891F9A1FA11D680F791FD9
S1130CD08A1F911DA11D6A0F711D811D911DA11DEA
S1130CE020D009F468943F912AE0269F11243019FA
S1130CF0305D3193DEF6CF010895462F4770405D95
S1130D004193B3E00FD0C9F7F6CF462F4F70405D43
S1130D104A3318F0495D31FD4052419302D0A9F79E
S1130D20EACFB4E0A6959795879577956795BA9598
S1130D30C9F700976105710508959B01AC010A2E5E
S1130D4006945795479537952795BA95C9F7620F35
S1110D50731F841F951FA01D0895F894FFCFF4
S1130D5ED902C3020000000200000000710300006B
S1130D6E000044757479206379636C653D256C7558
S1130D7E2E25642525200D0A4672657175656E63F0
S10F0D8E793D256C75487A0D0A0A0000B6
S9030000FC
